:100000000C94F3020C9410030C9410030C94100342
:100010000C9410030C9410030C9410030C94100314
:100020000C9410030C9410030C941B2B0C94EF2BCA
:100030000C947E250C9410030C9410030C94100364
:100040000C9410030C9410030C9410030C941003E4
:100050000C9410030C9404260C9410030C941003BD
:100060000C9410030C9410030C9410030C941003C4
:100070000C9410030C9410030C9410030C941003B4
:100080000C9410030C9410030C9410030C941003A4
:100090000C9410030C9410030C9410030C94100394
:1000A0000C9410030C9410030C9410030763423655
:1000B000B79BD8A71A39685618AEBAAB558C1D3CF9
:1000C000B7CC5763BD6DEDFD753EF6177231BF00BD
:1000D0000000803F08000000BE922449123EABAAF7
:1000E000AA2ABECDCCCC4C3E00000080BEABAAAA52
:1000F000AA3E00000000BF000000803F000000009A
:1001000000084178D3BB4387D1133D190E3CC3BDD2
:100110004282AD2B3E68EC8276BED98FE1A93E4C7F
:1001200080EFFFBE01C4FF7F3F00000000005F00C2
:10013000600061002A005C005D005E00570059000D
:100140005A005B00580062008500630058000100FF
:100150000100010001000100010001000100010097
:100160000100010001000100010001000100010087
:100170000100010001000100010001000100010077
:100180000100010001000100010001000100010067
:100190000100010001000100010001000100010057
:1001A0000100010001000100010001000100000048
:1001B0000000000000002A2B2800000000000000C2
:1001C00000000000000000000029000000002C1EBC
:1001D0003420212224342627252E362D3738271E79
:1001E0001F202122232425263333362E37381F049F
:1001F00005060708090A0B0C0D0E0F101112131437
:1002000015161718191A1B1C1D2F3130232D3504F4
:1002100005060708090A0B0C0D0E0F101112131416
:1002200015161718191A1B1C1D2F3130354C0000DC
:1002300000000000000000000000000000000000BE
:1002400000000000000000000000000000000000AE
:1002500000007E0F00D4FFFFFFC7000000780004FD
:100260007F3F1F643214643214783C1E1E140A054A
:100270002223252628292A2C2D2F303233353638B3
:100280003A3B3D3E4042434547494A4C4E5051530C
:100290005557595A5C5E6062646668696B6D6F7130
:1002A000737577797B7D7F81838587898A8C8E9032
:1002B000929496989A9C9E9FA1A3A5A7A8AAACAE3B
:1002C000AFB1B3B4B6B8B9BBBCBEBFC1C2C3C5C67B
:1002D000C7C9CACBCCCDCED0D1D2D2D3D4D5D6D724
:1002E000D7D8D9D9DADADBDBDBDCDCDCDCDCDDDD62
:1002F000DDDDDCDCDCDCDCDBDBDBDADAD9D9D8D752
:10030000D7D6D5D4D3D2D2D1D0CECDCCCBCAC9C7F3
:10031000C6C5C3C2C1BFBEBCBBB9B8B6B4B3B1AF2A
:10032000AEACAAA8A7A5A3A19F9E9C9A98969492CA
:10033000908E8C8A89878583817F7D7B79777573A1
:10034000716F6D6B6968666462605E5C5A5957557F
:100350005351504E4C4A4947454342403E3D3B3A3B
:100360003836353332302F2D2C2A292826252322C2
:10037000FFAA7F55400001010101010101010102B5
:100380000202020202020202030303030303030345
:100390000404040404040405050505050606060610
:1003A00006070707070708080808090909090A0ACC
:1003B0000A0B0B0B0C0C0C0D0D0D0E0E0E0F0F0F70
:1003C00010101111111212131314141515161617FB
:1003D00017181819191A1A1B1B1C1D1D1E1E1F2069
:1003E00020212222232424252626272829292A2BB6
:1003F0002C2D2D2E2F3031323233343536373839DB
:100400003A3B3C3D3E3F40414243444546474849D4
:100410004A4C4D4E4F50515354555658595A5B5DA6
:100420005E5F616264656668696B6C6D6F70727344
:100430007577787A7B7D7E8082838587888A8C8EAB
:100440008F91939596989A9C9EA0A2A3A5A7A9ABDD
:10045000ADAFB1B3B5B7BABCBEC0C2C4C6C9CBCDCF
:10046000CFD1D4D6D8DBDDDFE2E4E7E9EBEEF0F381
:10047000F5F8FAFDFF16036B0075006B006F007A4C
:10048000006800700061006400320000001603552F
:1004900000730065006C00650073007300660075F2
:1004A000006C0000000403090409025B0003010062
:1004B000A0FA090400000103010100092111010053
:1004C0000122400007058103080001090401000220
:1004D000030000000921110100012222000705820A
:1004E00003200001070503032000010904020001A5
:1004F00003000000092111010001226D000705849D
:10050000032000011201000200000008EDFE0000BF
:100510000100010200010660FF0961A101096215E5
:100520000026FF009520750881020963150026FF4B
:1005300000952075089102C005010980A10185037D
:1005400019012AB700150126B70095017510810021
:10055000C0050C0901A101850419012AA002150199
:1005600026A002950175108100C005010906A101B0
:100570008506050719E029E715002501950875018D
:1005800081020507190029EF1500250195F0750175
:10059000810205081901290595057501910295014A
:1005A00075039101C005010906A101050719E0299C
:1005B000E7150025019508750181029501750881EF
:1005C000010507190029FF150026FF00950675088B
:1005D000810005081901290595057501910295010C
:1005E00075039101C00011241FBECFEFDAE0DEBF1A
:1005F000CDBF14E0A0E0B1E0EEE0F5E602C005906A
:100600000D92AE35B107D9F726E0AEE5B4E001C0F2
:100610001D92AF30B207E1F70E9466120C945C3273
:100620000C9400000C9427110C94281181E008957B
:1006300081E008950C94180308950C941C031F93F3
:10064000CF93DF9300D000D00F92CDB7DEB74983B0
:100650005A836B833091610489819A8131111DC065
:100660006623B9F02223A9F00E946209182F682F8F
:1006700089819A810E940F0969817A81812F0F9067
:100680000F900F900F900F90DF91CF911F910C94CE
:100690007C220E943B09182FEFCF0E9462096981DA
:1006A0007A81EDCFFC01262F4081518162817381D7
:1006B00084810C941F0381E00895CF93DF93EC01B4
:1006C00060E00E945203BE01DF91CF910C941D03A4
:1006D000E1E0F0E0DF0102C0AA0FBB1F6A95E2F77C
:1006E000BD01DF0102C0AA0FBB1F4A95E2F76A2BCA
:1006F00001C0EE0F2A95EAF7962F9823961302C0B1
:100700008E2B0895E0958E230895242F462F682F71
:10071000809168040E9468030C94CC080C94120326
:100720000C9414030895CF93DF930E9468080E94ED
:100730002D150E94DD25EC0140E063E070E080E0D3
:1007400091E00E9418130E949203CE010E94F525A9
:100750008A3F910530F00E94DE12DF91CF910C9418
:1007600028268FE99FE00197F1F700C00000EDCF48
:100770000F931F93CF93DF938C0161E00E9452038C
:10078000EC01B8010E94FD1E882309F44FC0B80196
:10079000CE010E941A03882309F448C0B801CE0193
:1007A0000E949012882309F441C0B801CE010E9432
:1007B000CC158823D9F1B801CE010E94DD2388230E
:1007C000A9F1B801CE010E944E20882379F1B80129
:1007D000CE010E944723882349F1B801CE010E942F
:1007E000A71D882319F1F8018281882361F0CA3599
:1007F000FDE5DF0721F170F4C115ECE5DE07A1F09E
:10080000CE3DDC45C9F0C801DF91CF911F910F911A
:100810000C941603CB358DE5D807A1F0CC35DD451A
:1008200091F70E94820DEFCF0E94930380E0DF9149
:10083000CF911F910F9108950E94440EF7CF0E940F
:100840008B0DE1CF0E948E0DDECF0E9463250E94AA
:100850002F050E94DE120C94241C0E9432050E9477
:10086000F01C0C946725DF92EF92FF920F931F9379
:10087000CF93DF93E82FF0E0E255FE4FD490282F7E
:1008800026952695269530E0F901E25BFD4F04910F
:10089000877010E0082E02C0159507950A94E2F7BC
:1008A00001701127F901E25CFD4FE490F12C082E54
:1008B00002C0F594E7940A94E2F791E0E922FF245C
:1008C000F901E25DFD4FC491D0E002C0D595C79516
:1008D0008A95E2F7C170DD270115110519F081EE47
:1008E0000E948405E114F10419F086EE0E9484054B
:1008F0008D2D0E940906EF2819F086EE0E94CA0588
:10090000012B19F081EE0E94CA05CD2B51F08CE22B
:10091000DF91CF911F910F91FF90EF90DF900C949A
:100920000906DF91CF911F910F91FF90EF90DF901B
:100930000895EF92FF920F931F93CF93DF93EC01F3
:10094000162F0AE08881882309F454C0813009F009
:100950004EC08981813099F47E0122E0E20EF11CC3
:100960008A810E940906E7012196812F815050F368
:10097000EFE9FFE03197F1F700C00000F7CF8230D8
:1009800041F47E0182E0E80EF11C8A810E94840518
:10099000EACF833041F47E01E2E0EE0EF11C8A8161
:1009A0000E94CA05E0CF843011F02196DDCF2A8164
:1009B000229690E080E0AE014F5F5F4F2053330BF3
:1009C0002A30310548F0019778F2EFE9FFE03197DE
:1009D000F1F700C00000F7CF089FB001099F700D2C
:1009E0001124C901860F971F2981EA01E4CF0E94D3
:1009F0003304BACFDF91CF911F910F91FF90EF9009
:100A0000089560E00C94990408950C94040581E025
:100A10000895CF93C82F0E940705882349F0C0FF8F
:100A200009C05F9AC1FF08C0769AC2FF07C02C9A1E
:100A3000CF9108955F98F6CF7698F7CF2C98F8CF9E
:100A4000579A5F986E9A7698249A2C980895CF9327
:100A5000C82F0E9405058C2FCF910C94090580E0CA
:100A60000C9427050E9439240C9427050E943924F0
:100A700090916004981721F0809360040C942705EE
:100A80000895CF93DF93CDB7DEB72B970FB6F894C9
:100A9000DEBF0FBECDBF4F83588769877A878B87AC
:100AA00061110E94D00C1E821D8285E0FE013796E6
:100AB000DE01119601900D928A95E1F78C819D815E
:100AC000892B89F449815A816B817C818D819E813A
:100AD0000E94F10B2B960FB6F894DEBF0FBECDBF70
:100AE000DF91CF91089589819A8189238F3F51F3B6
:100AF000CE0101960E945B038111E4CFEBCFFC0194
:100B0000808191810C948F09CF93C82F882309F499
:100B10003FC08CEF8C0F813AA0F46C2F80911A01AA
:100B200090911B010E949F24882329F08C2F0E9402
:100B3000920C0E94F00C8C2F0E948B0CCF910C9485
:100B4000F00C80E28C0F883048F4C77081E001C05F
:100B5000880FCA95EAF70E94B30CF0CFEBE5EC0FD3
:100B6000E33040F4F0E0E351FC4F808190E0CF911E
:100B70000C945F24C85AC73158F4EC2FF0E0EE0F04
:100B8000FF1FE154FC4F80819181CF910C9475241B
:100B9000CF910895882329F19CEF980F913A20F482
:100BA0000E94920C0C94F00C90E2980F983050F444
:100BB000877091E001C0990F8A95EAF7892F0E940A
:100BC000B90CF0CF9BE5980F933020F490E080E0D3
:100BD0000C945F24885A873120F490E080E00C94D4
:100BE000752408951F93CF93DF93182FEB010E9474
:100BF0008405209731F4812FDF91CF911F910C94C0
:100C0000CA058FE99FE00197F1F700C00000219726
:100C1000F0CF70E060E0893311F460E570E00C948F
:100C2000F205882321F00E94B30C0C94F00C089577
:100C3000882321F00E94B90C0C94F00C0895BF9207
:100C4000CF92DF92EF92FF920F931F93CF93DF9398
:100C50006C01D62FC72FFC011281F580F2949FE022
:100C6000F9220E94A90CE82E8823B9F0E12E112365
:100C7000A1F08C2F807F803421F080E28D0F8830AE
:100C8000D0F080915E0582FD16C082E00E94510D79
:100C90000E94A90C91E0E82EE926BC2EB2948FE0C8
:100CA000B822FBE0FB1508F468C0EB2DF0E0E25A37
:100CB000FD4C0C94B031E12CF0CF0C2F0F70C07FA5
:100CC00011F00295007F112399F0002359F080E282
:100CD0008D0F883010F0D11107C0802F0E94B30C07
:100CE0000E94F00C8D2F41C0802F0E94C30CF8CFC2
:100CF0008D2F0E94CA05002309F43FC080E28D0FAA
:100D0000883010F0D11104C0802F0E94B90C03C0AC
:100D1000802F0E94C90C0E94F00C2FC00C2F0F7066
:100D2000C07FC03211F00295007FDD2381F0D13009
:100D300009F469C0112309F473C0FF2009F469C0E4
:100D4000F601858180FFCECF8F70858362C0809150
:100D50005E0582FF38C0112359F0002329F0802F4F
:100D60000E94B30C0E94F00C80E00E94840505C034
:100D700080E00E94CA050111C7CFEB2DE850FF0BA0
:100D8000349720F40E9439240E942705EE2009F4AC
:100D900042C10E94A50C80FD3EC1F60112820E9454
:100DA0009F0C0E94DD08C6010E942C080E949F0C27
:100DB000DF91CF911F910F91FF90EF90DF90CF9037
:100DC000BF900C94E808112389F0F11006C00E942E
:100DD000D30C802B0E941106D0CF21E0F212F7CF66
:100DE0000E94D30C802B0E94D90CC7CFF11006C0F3
:100DF0000E94E60C802F0E941806BFCF31E0F31648
:100E000009F4BBCFF5CF112331F085E08F1508F43D
:100E1000B4CF802FDFCF94E09F1508F4AECFEACF98
:100E2000FF2041F3D93349F4FFEF27EE33E0F150CF
:100E300020403040E1F700C000008D2F0E94CA051D
:100E40009CCF8C2F86958695837069F0813009F050
:100E500094CF8D2F9C2F9370111102C090E080E0F1
:100E60000E9475248ACF8D2F9C2F9370111102C080
:100E700090E080E00E945F2480CF8C2F837079F512
:100E800011117BCF4D2F429546954770440F440F6B
:100E90008D2F8F70042E01C0880F0A94EAF72D2F32
:100EA0002071D4FF07C02FE030E001C0220F4A9527
:100EB000EAF72095C695C695C370822BC23049F0DB
:100EC00058F4C13019F00E94BE0857CF0E94B908EB
:100ED00054CF0E94C30851CF0E94B7084ECF8695C9
:100EE000112311F08C2F8170882309F446CF4D2FE8
:100EF000429546954770440F440F8D2F8F70042EF6
:100F000001C0880F0A94EAF72D2F2071D4FF07C083
:100F10002FE030E001C0220F4A95EAF72095C695F0
:100F2000C695C370822BC23049F058F4C13019F015
:100F30000E94040922CF0E94FF081FCF0E940909C6
:100F40001CCF0E94CC0819CFCF70112329F08C2F11
:100F50000E94DD088D2F3ECF8D2F0E9418068C2F0A
:100F60000E94E8080ACFD23F51F160F4D03FB9F0B7
:100F7000D13F81F0112309F449C0F110B3CE8C2F79
:100F80008F7121C0D33F11F1D43FA1F780915E054D
:100F900082FF26C08C2F8F71112311F314C01123EF
:100FA00049F084E08F1508F4E8CE8C2F8F710E94F1
:100FB000F408E3CE95E09F1508F4DFCEF6CF8C2F32
:100FC0008F711111CDCF0E94DD08D7CE112329F0EA
:100FD0008C2F8F710E94D508D0CE0E94D208CDCE22
:100FE000112349F0CF718C2F0E94DD0863E08C2F14
:100FF0000E94360DC2CE81E00E94510DE1E0EF1556
:1010000008F0BBCE82E00E94510DB7CEF1100ACF9E
:101010008C2F8F71A5CFDF91CF911F910F91FF90F2
:10102000EF90DF90CF90BF9008950F931F93CF93D1
:10103000DF93EC01688179818A810E9499098C0192
:101040000E940E090E94B608B801CE01DF91CF912F
:101050001F910F910C941F06CF93DF93EC018B81AE
:101060009C81892B29F08881998189238F3F59F4AC
:10107000DF91CF910895CE010E941508CE01DF9136
:10108000CF910C945D03CE010E94B8038111F3CF80
:101090000E94A90C882361F38A81882349F38091F7
:1010A0005E0582FDE5CF82E0DF91CF910C94510D7A
:1010B00090E080E00E945F2490E080E00E94752430
:1010C0000E94D00C0C94F00C0E94990C0C945808BF
:1010D0000E94C00C0C94640892959F70963091F019
:1010E00058F4925F9F70923058F4803F19F030F4BA
:1010F000883E30F481E008959A5FF4CF843FD1F3C5
:1011000080E00895883EB0F3813FD1F7F3CFFC0132
:10111000808191810E948F090C946C08CF93DF939A
:1011200000D000D00F92CDB7DEB70F900F900F9088
:101130000F900F90DF91CF910895CF93DF9300D060
:1011400000D000D0CDB7DEB726960FB6F894DEBF3C
:101150000FBECDBFDF91CF91089508950C94AD08D7
:101160000E94AE08809369040C94580808950C946A
:10117000B00890916904892B0C94B008909169048F
:1011800089230C94B0089091690489270C94B008C5
:101190000C94AD080C94C8080E94CA088093680497
:1011A0000C94580880E00C94CC0891E001C0990F91
:1011B0008A95EAF7892F0C94CC0821E030E001C031
:1011C000220F8A95EAF780916804822B0C94CC0850
:1011D00021E030E001C0220F8A95EAF72095809146
:1011E000680482230C94CC0821E030E001C0220F77
:1011F0008A95EAF78091680482270C94CC08909134
:101200006804892B0C94CC089091680489230C9471
:10121000CC089091680489270C94CC080895990F04
:10122000990F890F982F977041E001C0440F9A954C
:10123000EAF786958695869593E0899FF0011124BB
:10124000EE59FB4F30E020E070E05191DF01119743
:10125000CB01022E02C0969587950A94E2F7817021
:1012600081958527842385278C932F5F3F4F2330DB
:10127000310559F70895990F990F890F982F977095
:1012800086958695869523E0829FF0011124EE597C
:10129000FB4F50E040E080E0219130E0092E02C099
:1012A000369527950A94E2F721703327042E01C062
:1012B000220F0A94EAF7822B4F5F5F4F43305105AC
:1012C00059F70895CF92DF92FF920F931F93CF9318
:1012D000DF936C010091680480916904082BC7E0DA
:1012E000D0E010E0FC2EC8010C2E02C09595879529
:1012F0000A94E2F780FD0CC02197A0F7F12C8F2D06
:10130000DF91CF911F910F91FF90DF90CF900895C3
:10131000B6018C2F0E941510019771F3F0CFCF9377
:10132000DF93EC010E946209BE01DF91CF910C9422
:1013300015101F93CF93DF93EB01909161049923D4
:1013400031F0CB01DF91CF911F910C948F0988234D
:1013500079F0CB010E946209182F682FCE010E94FC
:101360000F09BE01812FDF91CF911F910C941510B1
:10137000CB010E943B09182FF4CF1F93CF93DF932B
:10138000C0916A0416E080916B048C1304C0DF9155
:10139000CF911F910895D0E01C9FF0011D9FF00D8B
:1013A0001124E459FB4F4081518162817381848112
:1013B00095810E949D082196C770E5CF40919C04BD
:1013C00050919D0460919E0470919F048091A004AF
:1013D0009091A1040C949D08FF920F931F93CF93BB
:1013E000DF938091A104807FD1F480919E048823B3
:1013F000B1F080916A0410916B0460919C0470912B
:101400009D04A0919F04B091A004062F0723C091D2
:101410001801D091190196E0F92E181306C0DF913A
:10142000CF911F910F91FF90089590E0109711F0C8
:101430000F3F19F401968770F0CFF89E9001F99E46
:10144000300D1124F901E459FB4F41814713F2CFCC
:1014500040814613EFCF42814111ECCF438154814B
:101460004A1B5B0B4C175D0728F78091A1048F7016
:1014700080618093A104F901EF58FB4F80818F7048
:10148000806180838CE994E00E942C08DF91CF91E9
:101490001F910F91FF900C94BD09AF92BF92CF9214
:1014A000DF92EF92FF920F931F93CF93DF93CDB70D
:1014B000DEB761970FB6F894DEBF0FBECDBF8C01CB
:1014C00085E0F801DE011D9601900D928A95E1F705
:1014D000F801E2808CE9C82E84E0D82E60919F0448
:1014E0007091A0046115710509F45FC190919C048D
:1014F00020919D04892F82238F3F09F456C140819A
:101500005181A380B480F0909E04F501E61BF70B97
:10151000BF01E0911801F0911901FF2009F4F6C014
:101520008091A104382F307F6E177F0708F0AFC07D
:10153000311179C0FE2C251323C0941321C0E11072
:101540001FC08F7080618093A1040E94DE09C601D4
:101550000E942C088091A104F80185838F2D61964B
:101560000FB6F894DEBF0FBECDBFDF91CF911F91B4
:101570000F91FF90EF90DF90CF90BF90AF900895C4
:10158000AB2829F0842F85238F3F09F027C180E005
:10159000F82FF170DF2E80FF3CC080916A0420910B
:1015A0006B0436E0821315C04D875E878D859E855E
:1015B0000E948F09292F22952F702230F0F02430BD
:1015C00018F59F70F1F0F8019581907FD1F4D12C3E
:1015D0001EC090E0389FF001399FF00D1124E459AE
:1015E000FB4F6181651306C06081641303C0628193
:1015F0006E110FC001968770D5CF9F7011F08823B0
:1016000031F3805E883018F3C8010E942C08FD2C4D
:10161000A5CFEE2009F4A2CF8091A1048160809330
:10162000A104F12C9BCF251306C0941304C0F8012C
:10163000EE2009F487C0C8010E948708882319F1A9
:10164000EE2009F18091A104803270F020919C0479
:1016500030919D0438872F831986BB86AA868C8794
:10166000CE0107960E942C0886E0F801ACE9B4E0B0
:1016700001900D928A95E1F70E94EC090E94DE0923
:10168000FF24F3946BCFC8010E942C08F9CF3111CD
:1016900013C07A2DB98AA88A6E2D89890E948E0876
:1016A0008CE994E00E942C0886E0F60111928A955C
:1016B000E9F70E94DE09B5CF25130FC094130DC0C2
:1016C000E1100BC0F8018583C8010E942C0886E058
:1016D000F60111928A95E9F741CFC8010E94870867
:1016E000882389F2EE2079F28091A104803208F4F7
:1016F000BBCF20919C0430919D043A8329831B82A7
:10170000BD82AC828E83CE010196ACCF6E177F076F
:1017100008F03EC0FE2CEE2009F4B5CF25132AC0F8
:10172000941328C08091A10480FD1BC0982F907F46
:10173000C1F0F8018583903F31F0982F907F905F42
:101740008F70892B8583C8010E942C0886E0F801E0
:10175000ACE9B4E001900D928A95E1F70E94DE09B0
:10176000FDCE86E0F801ACE9B4E001900D928A95D7
:10177000E1F7F4CEC8010E948708811175CF8091EE
:10178000A10481608093A104C8010E942C08E6CEC8
:101790007A2DB98AA88A6E2D89890E948E0886E0E2
:1017A000F60111928A95E9F7D9CFEE2009F46BCFB3
:1017B000C8010E948708F82E882309F464CF86E0C8
:1017C000F801ACE9B4E001900D928A95E1F78CE95B
:1017D00094E00E947F050E94EC09C0CF81E08E2535
:1017E000D7CE1F93CF93DF93CDB7DEB72C970FB62D
:1017F000F894DEBF0FBECDBF4F83588769877A87C5
:101800008B879C87CE0107960E944D0A882369F03A
:101810008A859B85892B39F04F815885842F8523B4
:101820008F3F09F071C016E05FC086E0FE01379679
:10183000DE01119601900D928A95E1F78A859B85CC
:10184000892B89F38F81988589238F3F61F32091BC
:101850006B0430E0C90101968770992740916A04B2
:101860004817190671F40E94680810926B041092D0
:101870006A0486E0ECE9F4E0DF011D928A95E9F75D
:10188000D2CF96E0929FD001939FB00D1124A4591E
:10189000BB4FFE01319601900D929A95E1F780932E
:1018A0006B040E94BD09BFCF819FC00111248459E0
:1018B0009B4F0E944D0A8823E9F0E0916A041E9F25
:1018C000F0011124E459FB4F408151816281738101
:1018D000848195810E949D0880916A0490E0019620
:1018E0008770992780936A0480916A0490916B04B1
:1018F0008913DACF2C960FB6F894DEBF0FBECDBF9A
:10190000DF91CF911F91089569857A858B859C859C
:101910000E949D0888CF682F80911A0190911B0129
:101920000C941F25682F80911A0190911B010C9433
:101930002A2580911A0190911B010C9435258091E4
:10194000C20485958595859508958091C204877018
:1019500008959091C204977081E009F480E00895A1
:101960008091E50408959091E504892B8093E50426
:10197000089580959091E50498239093E504089547
:101980001092E50408959091E404892B8093E40477
:10199000089580959091E40498239093E404089529
:1019A0001092E40408958091C304089508950C945E
:1019B000D60C90915E0592FD08C09091C3049817D3
:1019C00021F08093C3040C94D70C08958091C30434
:1019D000882329F01092C30480E00C94D70C08955A
:1019E000CF93DF93E0911A01F0911B018091E50400
:1019F0008083E0911A01F0911B0180819091E404B1
:101A0000892B80839091C304992381F0E0911A017E
:101A1000F0911B018081892B808380911A01909124
:101A20001B010E948B2481110E94E60CC0911A01B7
:101A3000D0911B0140E250E062EA74E0CE010E94C6
:101A40000732892B69F080E2FE01A2EAB4E001903E
:101A50000D928A95E1F7CE01DF91CF910C94452448
:101A6000DF91CF91089508950C94330D90915E0508
:101A700092FD10C098E0899F90011124622B609321
:101A8000C2040E94DD088091C204859585958595E4
:101A90000C94340D0C94DD081092C20480E00C9478
:101AA000340D9091C204809589238093C204282F1D
:101AB000277091F4282F082E000C330B9217130671
:101AC00059F090915E0592FD07C0859585958595A5
:101AD0000E94E8080C944C0D089590915E0592FBCD
:101AE000222720F9281769F080FB92F990935E0570
:101AF00080915D0590915E050E94B80D82E00C9486
:101B0000510D089580915E0582FB882780F991E050
:101B100089270C946D0D81E00C946D0D80E00C9480
:101B20006D0D6FEF7FEF90E080E00C94463290E017
:101B300080E00E942232893E9E4F11F40C949B1E3D
:101B400080E0089582E090E00C94143283E090E00D
:101B50000C941432CF9384E090E00E941432C82F8A
:101B600082E290E00E941432982F8C2FCF9108953A
:101B7000CF93C92F682F84E090E00E9428326C2F09
:101B800082E290E0CF910C94283287E090E00C94B0
:101B90001432682F87E090E00C942832AB01BC012E
:101BA0008FE090E00C943A32AB01BC0183E190E00D
:101BB0000C943A3260E070E0CB010C94D40D60E0FC
:101BC00070E0CB010E94CE0D0C94DA0D69EE7EEF31
:101BD00090E080E00E94463260E082E090E00E9467
:101BE000283260E083E090E00E942832109269047D
:101BF00060E084E090E00E94283260E082E290E0C1
:101C00000E94283260E085E090E00E94283260E087
:101C100086E090E00E9428326FEF87E090E00E941B
:101C2000283240E050E0BA0188E090E00E943A3269
:101C300060E08DE090E00E94283240E050E0BA0180
:101C400088E190E00E943A3260E087E190E00E94F3
:101C5000283240E050E0BA018CE190E00E943A3234
:101C600070E060E080E290E00E94463240E050E0A8
:101C7000BA0188E190E00E943A3280E00E94B41EEE
:101C80000E94E11E0C94DF0D0C94E60D682F8EE08F
:101C900090E00C9428320E94E9256093EE04709342
:101CA000EF048093F0049093F1046093EA0470933E
:101CB000EB048093EC049093ED04089585B780685D
:101CC00085BF85B7806885BF0895089508950C94F1
:101CD000660E08950C94690E0E945E0E83EF90E1EB
:101CE0000E942F240E94650E0C94670E81E00895D7
:101CF0000C94760E089508950E947A0E0C947B0E33
:101D00000E940D110E9420050C9493130E94D4256B
:101D10000E94F01E0E94CC110E94800E0E94B51CF1
:101D2000EDE5F5E080818068808380915D0590918C
:101D30005E050E94B80D0C946A0E9F92AF92BF92FE
:101D4000CF92DF92EF92FF920F931F93CF93DF9387
:101D5000CDB7DEB72A970FB6F894DEBF0FBECDBF62
:101D60000E94E111B82E81110E944B0E86EEE82EE2
:101D700084E0F82E10E0D12C812F0E942911982E9A
:101D8000F701A080A81681F18091F20481FD0E94E4
:101D90002F11A924C12C01E08A2D802301F10E947A
:101DA000780E8823A1F0CE821F8391E0892D8023B5
:101DB00009F490E098870E94DD258160782F9A874A
:101DC00089874E815F8168858A850E944105F70178
:101DD000808180278083D394F3E0FD15F0F0C394D5
:101DE000000F84E0C812D8CF1F5FEFEFEE1AFE0A93
:101DF000143009F0C1CFD11010C08FEF89838A83CE
:101E00001B820E94DD258160782F9D838C83498110
:101E10005A816B818D810E94410581E0B11001C022
:101E200080E02A960FB6F894DEBF0FBECDBFDF91DB
:101E3000CF911F910F91FF90EF90DF90CF90BF90C7
:101E4000AF909F9008950E949D0E0E9468150E9479
:101E5000F91C0C943605CF93DF930E941910EC0106
:101E6000811522E59207E8F5811531E5930708F021
:101E7000ACC0883E910510F5803E910570F5883A1A
:101E8000910570F4853A910508F078C0813091058C
:101E900021F1009711F1049700F5D0E0C0E01DC0DA
:101EA0008F3B9105D0F7C85AD0E0CC0FDD1FC05151
:101EB000DC4F0990D881C02DD4640FC0811540E556
:101EC000940708F066C0C11580E4D80708F05EC02A
:101ED000CE019A9581159F4100F7CE01DF91CF91F8
:101EE0000895811536E5930718F5811545E59407A2
:101EF00008F083C0C11584E5D80708F079C09C2F8D
:101F0000969596959E0123703327C115D34508F405
:101F100061C0C1E0D0E002C0CC0FDD1F2A95E2F71E
:101F200030E2939FC0011124C82BD92BDA68D5CF9A
:101F3000C1158AE5D80778F4C11599E5D90708F0E5
:101F400066C0C11528E5D20708F4A7CFDC2FCC273F
:101F5000C06FD06AC2CFCE0190568115904208F072
:101F60009CCF8D2F8F710E94B01090E0982F882702
:101F700088279F719C012C2BE90147C0C55AD0E0EE
:101F8000C25EDB4FC881D0E0D064A7CFDF70D06ADB
:101F9000A4CFE4E096958795EA95E1F783702C2F1E
:101FA00026952695237040E2249F90011124382B1A
:101FB0008C2F8370C1E0D0E002C0CC0FDD1F8A956A
:101FC000E2F7C22BD32BDC6888CFD82FCC27C16F88
:101FD000D06A83CFC1E0D0E002C0CC0FDD1F2A95CC
:101FE000E2F720E2929FC0011124C82BD92BEBCF3E
:101FF000DC2FCC27C46FD06A70CF0E94B010C82FDE
:10200000D0E0DC2FCC27CC27DF71D06266CF8C2FBD
:102010008F700E94B01034E0D695C7953A95E1F7DD
:10202000CF709C2FEC01D06958CF0E947C220C9479
:102030002B0F82389105B1F1B0F48133910509F489
:1020400075C048F48932910509F469C08A32910556
:1020500009F473C008958533910509F459C0893393
:10206000910501F10895833E9105A9F138F4803E70
:102070009105F9F0823E910549F10895863E91055A
:10208000A9F1873E9105C9F1843E910519F520918A
:102090005E0521FF1FC080915D0584FD14C087EEA1
:1020A00090E0089520915D052370A1F080EE90E00E
:1020B000089520915D0520FD47C030915E0530FFF9
:1020C00009C024FF44C090E080E004C020915D0579
:1020D00022FDF7CF089520915D0522FD3BC0309190
:1020E0005E0530FDE3CF24FFF5CFEDCF20915D05F8
:1020F00023FFF0CF24FDE7CFD2CF20915D0523FD54
:102100002CC030915E0531FFEECF84EE90E0089553
:1021100020915D0525FFDECF89E290E008952091B2
:102120005D0525FFD7CF85E390E0089520915D05FB
:1021300026FFD0CF8AE290E0089520915D0526FF2A
:10214000C9CF81E390E0089589E390E0089583EE9C
:1021500090E0089582EE90E0089586EE90E0089574
:1021600090915D0592FF06C0282F28712830F9F460
:10217000877F846093FF06C0282F28712831F1F4EF
:10218000877E846120915E0520FF06C0382F38715C
:102190003830D9F4877F816021FF06C0282F28714D
:1021A0002831D1F4877E816194FD877E0895282FA0
:1021B00024712430F9F68B7F8860DCCF282F2471BE
:1021C000243101F78B7E8861DDCF382F31713130BA
:1021D00019F78E7F8860E0CF282F2171213121F7F8
:1021E0008E7E8861E1CF80E008950C94910D0E946D
:1021F000E1118FE39CE90197F1F700C000000E9414
:10220000E11180E00E94291180FF04C00E94F510B6
:102210000C94282608950C94F7100E94970D8111B4
:1022200002C00E94440E0E94A20D8093F2040E94FC
:10223000AA0D90935E0580935D050E940B110E948C
:10224000A60D0E94B708809168040C94CA080895EE
:102250000895E82FF0E0ED59FA4F80810895089530
:1022600080EA8A95F1F7089500C008950C94301122
:10227000F894E82FE295EF70F0E031A1282F2F704D
:1022800081E090E001C0880F2A95EAF7982F909599
:10229000932391A392A1892B82A37894089582E33A
:1022A0000E94381186E30E94381184E90E94381197
:1022B00086E60E94381185EF0E94381186EF0E9451
:1022C000381187EF0E94381181E30C943811CF92B6
:1022D000DF92EF92FF920F931F93CF93DF93EC0166
:1022E000D62E062F10E0C8018B5D9B4F7C01FC01B0
:1022F00080818F3F09F445C0F894E82FE295EF7094
:10230000F0E091A18F7021E030E001C0220F8A95AA
:10231000EAF7892F822B81A382A12095282322A36B
:1023200078940E943411E1E2F4E045E254E031E0B7
:10233000C12C21912F3F71F1A22FA295AF70B0E077
:1023400090968C9190E02F7002C0959587952A9574
:10235000E2F780FD1FC0832FC82A330F4E175F0797
:1023600041F7F70180818F3F11F00E94381161E041
:10237000C11001C060E08D2D0E943611C00FD11F29
:10238000C882DF91CF911F910F91FF90EF90DF9066
:10239000CF90089580E0E0CF0E944F1184E0E3E603
:1023A000F5E0DF01982F1D929A95E9F7EFE5F5E04A
:1023B000DF011D928A95E9F784E00E9423120C94B4
:1023C0008E031F93CF93DF9300D000D0CDB7DEB73D
:1023D00019821A821B821C8210E0612FCE010196A5
:1023E0000E9467111F5F1430C1F744E050E0BE0146
:1023F0006F5F7F4F8FE595E00E94073211E00097F5
:1024000009F410E0892B61F089819A81AB81BC814C
:1024100080935F0590936005A0936105B09362057A
:10242000212F44E063E675E08FE595E00E942412D9
:102430000E949003812F0F900F900F900F90DF91CB
:10244000CF911F9108950895FF920F931F93CF93FB
:10245000DF93F82E092F162FD72FC42F222349F0F0
:1024600081E08093F5040E94DD259093F40480932D
:10247000F3048091F5048823A1F08091F3049091F6
:10248000F4040E94F525059760F0EF2DF02FA12FA1
:10249000BD2FCE0FDF2FD11DEC17FD0741F4109299
:1024A000F504DF91CF911F910F91FF9008958191D5
:1024B0008D93F2CF0E94F0270E94860E0C94FC2789
:1024C0000E9400280E94230F0C941A280E947D2548
:1024D0000E94D7270E946C0E0E945A120E9460121E
:1024E0000E947C0EFBCF8554990BBC01990F880B81
:1024F000990B0E94492E20E030E040E451E40E9414
:10250000A62D9B01AC0160E070E080E090E40E94A9
:10251000662F20E030E04CED53E40E94F92E089540
:10252000FB018D312CE5920739F482818823A1F1DA
:102530000E94F91480E008958E312CE5920731F461
:102540008281882349F10E940915F4CF8F312CE54F
:10255000920741F482818823F9F00E94DA128111F6
:10256000F2CFE6CF8A322CE5920769F48281882384
:1025700099F00E94271540E064E070E08CE191E062
:102580000E941813D7CF8B329C4531F48281882367
:1025900019F00E942A15EFCF81E008950E9473126E
:1025A0000C94F5140E9473120C94C2130C94DE1256
:1025B000089508958091BB058170089580913C0134
:1025C000811122C0109201050E942515109200056C
:1025D0001092FF041092FD041092FC04EBE7F5E06A
:1025E00080E090E0A0E8BFEB1182108282839383A9
:1025F000A483B58317821682389625E0EB3BF20759
:1026000099F781E080933C0108959C01A0E6BAEE21
:102610000E94C5312091750140E4249F900111244E
:10262000032E000C440B550B0E948E31C9010895F6
:10263000EF92FF921F93CF93DF93EC017B01142F56
:102640008091BB0580FD07C0DF91CF911F91FF9066
:10265000EF900C94DE128091F604811102C00E946A
:1026600093138091FF0481110E94DE1281E0809318
:1026700000051092F904D0937A05C0937905F09281
:102680006805E09267051093BC051092FB04109258
:10269000FA046C817D818E819F810E94182ECB016E
:1026A0000E940513AC01688179818A819B810E9417
:1026B0003D140E94DD259093F8048093F704E09187
:1026C0007905F0917A058091FA049091FB0423E05A
:1026D000880F991F2A95E1F7E80FF91F648175812A
:1026E000868197810E94182ECB010E94051390933A
:1026F000FD048093FC04DF91CF911F91FF90EF9038
:1027000008958091BB0580FF07C040E063E070E062
:102710008DE591E00E9418130E94DD259093F80446
:102720008093F70408958091F60481112AC00E94D5
:10273000970D811102C00E94440E0E94C50D809326
:10274000BB05EBE7F5E080E090E0A0E8BFEB11828D
:10275000108282839383A483B5831782168238966E
:1027600025E0EB3BF20799F78091F604811105C053
:102770000E94241581E08093F6040E94DE120C94DE
:1027800081130895CF92DF92EF92FF920F931F93E0
:10279000CF93DF936B017C0120E030E0A9010E9420
:1027A000A12D87FF04C0F7FAF094F7F8F094809118
:1027B000FF04882309F458C08091F604811102C0F7
:1027C0000E9493130BE715E0C7E0D0E0A701960144
:1027D000F80162AD73AD84AD95AD0E94A12D81115C
:1027E0003CC083E0CC0FDD1F8A95E1F7C558DA4F76
:1027F0001982188280E090E0A0E8BFEB8A839B8377
:10280000AC83BD831F821E82AC01BD01F5E0C33BDA
:10281000DF0789F4C1E0C093FE0480910105815077
:1028200080930105811120C00E942515C0933C01B1
:102830001092FF0419C088E0FE013896DE01019075
:102840000D928A95E1F7198618864A875B876C870F
:102850007D871F861E862896D9CF2197085011099B
:10286000CF3FDC0709F0B2CFDF91CF911F910F91DD
:10287000FF90EF90DF90CF9008958F929F92AF924C
:10288000BF92CF92DF92EF92FF920F931F93CF935D
:10289000DF936B017C018A018091BB0580FF7AC0C8
:1028A0008091F604811102C00E94931320E030E071
:1028B000A901C701B6010E94A12D87FF04C0F7FA44
:1028C000F094F7F8F094D09101052D2F2150330B9F
:1028D00059013FEFA316B30609F040C0DF5FD930BE
:1028E00008F480C088E0809301058BE795E028E03C
:1028F000FC013896DC0101900D922A95E1F70896CB
:10290000E5E0833B9E0799F781E08093FE04809386
:10291000FF04C0910105C150DD0B0E94DD25FE01C1
:1029200023E0EE0FFF1F2A95E1F7E558FA4F918358
:102930008083C282D382E482F582178306830E9459
:10294000DD25909304058093030580913C01882345
:1029500009F10E94261510923C011CC0C50133E00C
:10296000880F991F3A95E1F7FC01E558FA4F4F019E
:10297000A701960162817381848195810E94A12DB6
:1029800081112CC0E401809101058150990BA8169A
:10299000B9066CF0DF91CF911F910F91FF90EF90EE
:1029A000DF90CF90BF90AF909F908F900895FFEFF2
:1029B000AF1ABF0A88E0FE013896DE0101900D9241
:1029C0008A95E1F70E94DD2599878887CA86DB868C
:1029D000EC86FD861F870E872896D5CF21E0A21AA8
:1029E000B10877CFD09301058FCF4FEF5FEF0C94F5
:1029F0003D148091BB0581608093BB050E94C90D89
:102A00000E94D81240E062E070E08DE491E00C9406
:102A1000181340E062E070E08DE391E00E9418132B
:102A20000E94D9122FEF81EE94E021508040904017
:102A3000E1F700C000000E94DE128091BB058E7F8E
:102A40008093BB050C94C90D0895089508951092C4
:102A50000205089510920205089580911D058111C7
:102A60000C94D612089521E08F3F910508F020E0E4
:102A7000822F08950C9433150E942D1510921D0578
:102A800040E068E070E086EF91E00C94181310923B
:102A90001C0540E068E070E086E791E00C941813B4
:102AA0000E942D152091180330E02F5F3F4F2370B7
:102AB00033272093180348E2429FC001439F900DA3
:102AC000112440E065E070E08A589D4F0C94181383
:102AD000CF9380911905882309F442C080910505A0
:102AE00090910605009799F50E94DD2590930605C3
:102AF00080930505E0910705809108058150990BA9
:102B0000EE2321F02E2F2150330BC90120911D05FA
:102B1000222389F0F0E0E75FFA4FC081875F9A4F88
:102B2000FC0180810E94D21280911D05882319F03A
:102B30008C2F0E94CE128091070590E00196609143
:102B4000080570E00E947A318093070509C00E9451
:102B5000F52520911603309117032817390720F225
:102B6000CF910895089581E080931D0540E068E0CD
:102B700070E086E392E00E9418130C94B215089559
:102B800081E080931C0540E068E070E086EB91E016
:102B90000E9418130C94BF15EF92FF921F93CF93CE
:102BA000DF93CDB7DEB7A3970FB6F894DEBF0FBEA5
:102BB000CDBF7C0186324CE59407A9F4DB01129667
:102BC0008C91882309F458C00E94B31580E0A39625
:102BD0000FB6F894DEBF0FBECDBFDF91CF911F912E
:102BE000FF90EF9008958732BCE59B0741F4FB010D
:102BF0008281882309F440C00E943C15E7CF8832C7
:102C0000FCE59F0751F480911D05DB0112969C9114
:102C1000992391F18111F0CFD7CF8C32BCE59B077E
:102C200039F4FB018281882339F10E94C015CECF8F
:102C30008D32FCE59F0741F4DB0112968C918823CD
:102C4000D9F00E944715C2CF8E32BCE59B0749F4EC
:102C5000FB018281882381F080911C058111F1CFD5
:102C6000E4CF89329C4541F4DB0112968C91882394
:102C700019F00E945015AACF20911D05211105C001
:102C800080911C05882309F4DBC0FB0132813323CA
:102C900009F450C0F0EEEF16F10461F40E942D1516
:102CA00081E080931B0510921A051092190510926D
:102CB00008058CCF42EEE416F10471F40E942D1544
:102CC00080911B05882319F081E080931A051092EA
:102CD0001B05109219057ACF83EEE816F10491F4E2
:102CE00080911A05882331F10E942D1510921B0541
:102CF00081E0809319051092070510920605109245
:102D0000050564CF92E5E916F10451F480911603AC
:102D1000909117030A97909317038093160356CF49
:102D2000A1E5EA16F10431F480911603909117039E
:102D30000A96F1CF8091180310911B03811111C0E5
:102D4000135080911903180FFB018081180F4181E6
:102D500084E090E0841B9109FCE08F9F100D11240A
:102D600014C0813071F5105E80911903180FDB01DA
:102D70008C91180F11964C9184E090E0841B91097E
:102D8000982F990F990F890F180F332309F451C009
:102D9000222319F0812F0E94CE1280911B058823D7
:102DA00051F080910805E82FF0E0E75FFA4F1083BB
:102DB0008F5F80930805C7010E943A1591E089272B
:102DC00006CF823071F4105E80911903180FFB0159
:102DD0008081180F418184E090E0841B9109F7E025
:102DE000BCCF833091F683E2ECE9F3E0DE0111968B
:102DF00001900D928A95E1F7DB01EC9181E090E082
:102E00008C0F9D1F8E0F911DFC01809119039091D5
:102E10001A03E80FF91F13508081180F11964C9177
:102E200084E090E0841B9109ACE08A9F100D11248E
:102E3000ACCF222309F4BFCF812F0E94D212BBCF87
:102E400081E0C5CEEF92FF920F931F93CF93DF9354
:102E5000EB01E82FD11110C0442321F0F0E0EB5832
:102E6000FC4FE4916E2F7E2F8E2FDF91CF911F911B
:102E70000F91FF90EF9008950D2F10E0282F30E074
:102E8000442329F02B583C4FF901249130E0F6E01F
:102E9000CF9FC0011124EFEFF0E0BF010E94663127
:102EA000AB018C2F90E0880F991FA5E5A49FB0017E
:102EB000A59F700D1124861B970B982F990F980FC3
:102EC000BF01601B710B629FD001639FB00D729FA9
:102ED000B00D11248B2F9D9FB0011124672F7727F0
:102EE000EF01C61BD70BBE01629FE001639FD00DAF
:102EF000729FD00D11247F01E91AF108E09EB00104
:102F0000E19E700DF09E700D1124672F7727E61B50
:102F1000F70BE29F8001E39F100DF29F100D11242B
:102F2000E12F722F4230510599F048F441155105B7
:102F300069F04130510581F0EB2F8D2F07C04430EF
:102F4000510569F080F046305105B1F76E2F8DCFF5
:102F5000E22F7B2F812FFACFE22F7D2FF7CFEB2FA0
:102F6000822F712FF3CF7B2F822FED2FEFCF41E0F8
:102F70000C94221708950C94B717CF93DF93762FF4
:102F8000E901682F842F0E94BB17798368838A83A5
:102F9000DF91CF9108958091BD05982F9E7F29F4F0
:102FA000817082608093BD0508958A34E8F3817052
:102FB0008864F8CF88E090E00C941C32CF92DF92C6
:102FC000EF92FF926B017C010E94CB17B701A60123
:102FD00088E090E0FF90EF90DF90CF900C943A3231
:102FE0006091BD057091BE058091BF059091C005AF
:102FF0000C94DE17EDEBF5E083E0808311828FEF18
:1030000082838383148260817181828193810C9495
:10301000DE178091BD0580FF02C08695089580E08F
:1030200008959091C105933018F49F5F9093C10566
:10303000882351F06091BD057091BE058091BF0558
:103040009091C0050C94DE17089581E00C9411183E
:103050009091C105992319F091509093C10588234F
:1030600051F06091BD057091BE058091BF059091B2
:10307000C0050C94DE17089581E00C942818809107
:10308000C10508958093C105662351F06091BD0587
:103090007091BE058091BF059091C0050C94DE171C
:1030A000089560E00C9442188091BE0508958091C7
:1030B000BF0508958091C005089570E00C946F1EBF
:1030C000609120038091BD0580FF0AC080911F039D
:1030D00023E0829FC00111248E539A4F0C945D18F7
:1030E000809121039091220323E0829FF00111241B
:1030F000EE53FA4F891750F71182108212828F5FB8
:103100003396F8CF9091BD0590FF14C090912103A4
:103110002091220333E0939FF0011124EE53FA4FE4
:10312000921710F00C9460188183608342839F5F34
:103130003396F6CF0895CF93DF9300D00F92CDB79B
:10314000DEB79091BD0590FF0AC09E012F5F3F4FF3
:103150000E94BD174B8169818A810E9482180F905D
:103160000F900F90DF91CF910895CF93DF93EC01F3
:10317000EC81F0E0E059FD4F4491EDEBF5E0628128
:1031800081810E949B188C818F5F8C83DF91CF910E
:103190000895CF93DF93EC01EDEBF5E0438162817D
:1031A0008C810E949B188C818F5F8C83DF91CF91E3
:1031B00008950F931F93CF93DF9300D00F92CDB755
:1031C000DEB78C0180911E0581110AC09E012F5F20
:1031D0003F4F4FEF6FEF0E94BD178A8180931E050E
:1031E000F8016481613069F080911E0540E066233A
:1031F00061F040E0623011F440911E0580E060E033
:1032000004C060911E0540E080E00E948218F80131
:10321000848190E0019663E070E00E947A318483BB
:103220000F900F900F90DF91CF911F910F91089504
:10323000AF92BF92CF92DF92EF92FF920F931F93C4
:10324000CF93DF9300D00F92CDB7DEB7182FF62EB5
:10325000042FE22E9091BD0590FF29C0E92FE6953D
:10326000AE2FB0E0A75DBB4F8C9180932A059E7F67
:10327000923059F59E012F5F3F4F812F0E94BD175D
:103280004B8169818A810E9482181093BE05F09259
:10329000BF050093C005EE2051F06091BD0570910F
:1032A000BE058091BF059091C0050E94DE170F906A
:1032B0000F900F90DF91CF911F910F91FF90EF90A2
:1032C000DF90CF90BF90AF900895823019F40091B5
:1032D000C005DBCF863019F41091BE05D6CF8930FA
:1032E000D9F3893191F6E9518E2F8170D82EE69568
:1032F000F0E0E059FC4FA590B490C12CBB24609144
:103300002303C61618F00E946018BFCF2C2D30E0A2
:10331000A29EC001A39E900DB29E900D112470E05C
:103320000E946631812FD11013C0860F4091210376
:10333000420F532F511D9A01220F331F240F351FA7
:103340002E533A4F402F6F2D0E94BD17C394D7CFF5
:10335000861BECCFEDEBF5E09181282F4381628154
:1033600088E0890F0C94181981E00C94AA19EDEBF0
:10337000F5E09181282F4381628188EF890F0C94B9
:10338000181981E00C94B719EDEBF5E0628128E0A3
:10339000620F08F46FEF282F438181810C94181974
:1033A00081E00C94C419EDEBF5E0628128E0621B2A
:1033B00008F460E0282F438181810C94181981E082
:1033C0000C94D319EDEBF5E0438128E0420F08F4AB
:1033D0004FEF282F628181810C94181981E00C94A1
:1033E000E219EDEBF5E0438128E0421B08F440E0F0
:1033F000282F628181810C94181981E00C94F119B5
:1034000020E00C941819EF92FF921F93CF93DF9353
:10341000EC0110E0EE24EA94F12C609123031617DE
:1034200070F00E9460189A818C8190FF27C08F5F96
:103430008C83DF91CF911F91FF90EF9008952091A1
:103440002103422F410F5527551FCA019A01220F10
:10345000331F280F391F2E533A4F70E0C7010E94C7
:103460007A31962F8C814091C0056091BF05199FDC
:10347000800D11240E94BD171F5FCFCF8150D8CF80
:10348000AF92BF92CF92DF92EF92FF920F931F9372
:10349000CF93DF93FC0182810FEF80FF01E010E00A
:1034A00044E1A42E809123031817C8F00E946018ED
:1034B00080912005013009F055C0811102C0809132
:1034C0002303815080932005DF91CF911F910F91AD
:1034D000FF90EF90DF90CF90BF90AF900895C09194
:1034E0002103C12ED12CCC0DDD2DD11DCE01880F95
:1034F000991FC80FD91FCE53DA4F198218821A822A
:1035000034E0E32EF12CB12C809120058B0D853118
:103510001CF16A2D0E945831892F082E000C990B3E
:10352000C816D90691F48091C0058E9DA0018F9D8B
:10353000500D112455954795559547959E016091DD
:10354000BF058091BE050E94BD17B00EF1E0EF1AD5
:10355000F108D1F61F5FA6CF87FFDFCF909123033D
:10356000890FDBCF90E001966091230370E00E9409
:103570007A31A8CF0F931F93CF93DF9380912103CC
:103580009091220323E0829FF0011124EE53FA4F21
:10359000891740F1C0E0D3E060912303C61740F1E2
:1035A0000E94601820911D0380911F05820F809357
:1035B0001F0590911E03920F90931E03191654F449
:1035C000082E000C990B409123034150550B841792
:1035D00095071CF0219520931D03DF91CF911F913A
:1035E0000F9108951182108212828F5F3396D0CF8F
:1035F0000C2F10E070E0C8010E947A312091210365
:10360000820F482F50E020911F05022E000C330B33
:1036100002171307BCF020911E03022E000C330B7F
:10362000201731077CF08D9F900111242E533A4FC3
:103630004091C0056091BF058091BE050E94BD17F5
:10364000CF5FAACFFA01EE0FFF1FE40FF51FEE5375
:10365000FA4F118210821282F3CF8F929F92AF9213
:10366000BF92CF92DF92EF92FF920F931F93CF936F
:10367000DF93EC014C81042F10E09801D8010E94E7
:10368000C5319B01AC010E94DB314B015C01E0E2E2
:10369000F0E0E01BF10BA5E5B0E0AC019B010E945E
:1036A000DB316B017C019F01DF010E94BD319B0179
:1036B000AC010E94E6319B01AC01280D391D4A1D69
:1036C0005B1DC701B6010E948E31F22E822F90E061
:1036D00039E23F1560F143E0249F900111243595B4
:1036E0002795122F109500E085E5E82EEF188091C0
:1036F0002303081758F10E9460189C8181E09923E8
:1037000019F0903219F48FEF80931C0380911C0301
:10371000890F8C83DF91CF911F910F91FF90EF90D4
:10372000DF90CF90BF90AF909F908F90089525E548
:1037300030E0B901681B790B9B01220F331F260F64
:10374000371F37FFCCCF2F5F3F4FC9CF8E2D01FDE5
:103750008F2D20912103622F600F7727771F9B0108
:10376000220F331F260F371F2E533A4F412F6091E0
:10377000BF050E94BD170F5FBACF0F931F93CF9362
:10378000DF93EC0110E000E0909123039017110605
:1037900009F06CF40E9460188C8190E001968170B1
:1037A00099278C83DF91CF911F910F9108952091DC
:1037B0002103A801420F511D9A01220F331F240F2C
:1037C000351F2E533A4F4C816091BF058091BE0545
:1037D00096959017110651F04CF0442349F0409112
:1037E000C0050E94BD170F5F1F4FCECF4423B9F312
:1037F00040E0F7CFEDEBF5E080818E7F8083608144
:103800007181828193810E94DE1710922B052FEF28
:1038100080E792E0215080409040E1F700C0000036
:103820000C946018EDEBF5E080818E7F8083109220
:103830002B052FEF80E792E0215080409040E1F788
:1038400000C000000C94601810922B058091280590
:1038500081110AC081E0809328058091BD058170A7
:10386000809327050C94121C08956091BD05669500
:1038700070E04BE050E084E293E00E94FA31892B43
:1038800019F481E080932B050E94DD259093220599
:103890008093210508959091BD0590FF35C09170EA
:1038A000811128C092609093BD05662351F060910C
:1038B000BD057091BE058091BF059091C0050E9425
:1038C000DE176091BD05669570E04BE050E084E244
:1038D00093E00E94FA31892BA1F010922B0581E030
:1038E000809324054091C0056091BF058091BE057D
:1038F0000C94001A853210F09864D5CF880F982B5D
:10390000D2CF0E94351CEBCF0895682F9091BD0552
:10391000969581E0890F853208F081E00C944B1C6C
:1039200081E00C94851C682F9091BD0596958FEFD2
:10393000890F09F484E20C944B1C81E00C94931CD5
:1039400061E00C944B1CEDEBF5E08081816080839D
:1039500086950C94A01C8091BD0580FD0C94FA1BEB
:103960000C94A31C60E00C944B1C809129058111E0
:103970002EC00E94970D811104C00E94440E0E9427
:10398000FA170E94DA176093BD057093BE05809305
:10399000BF059093C0056E7F61F40E94FA170E94E4
:1039A000DA176093BD057093BE058093BF059093B1
:1039B000C0050E94CB1710922B058091BD0580FF9A
:1039C00003C086950E94B21C81E08093290508956A
:1039D000EDEBF5E080818160808386950C94B21CCC
:1039E000109228058091270581110E94E81C0C94F3
:1039F000351C0F931F93CF93DF9380912B05882362
:103A000009F486C080912A05E091BD05E695E81B82
:103A1000E0932305823091F5F0E0E459FD4FE49105
:103A2000CE2FD0E005EB18E180912405882361F0CA
:103A3000109224050E94DD25909322058093210594
:103A400010922605109225050E94DD25E0912105A2
:103A5000F09122058E1B9F0B8F3F9F4708F058C0A7
:103A6000EC0FFD1FF0932205E093210581E295E024
:103A7000F801DF91CF911F910F910994863049F49D
:103A8000F0E0E759FD4FE491CE2FD0E009EC18E1CA
:103A9000CBCF893051F4E695F0E0EA59FD4FE4913F
:103AA000CE2FD0E003E01AE1BFCF8F3051F4E6957E
:103AB000F0E0ED59FD4FE491CE2FD0E000E41AE1A3
:103AC000B3CF853149F4F0E0E05AFD4FE491CE2FB9
:103AD000D0E00AEB1AE1A8CFC8E2D0E00DE21BE18A
:103AE000883109F4A1CF833239F4EEE5F2E0C591D3
:103AF000D49109ED18E198CFC4EFD1E00DEB1BE1B3
:103B0000843209F491CFC0EDD7E00AEB17E18CCFF6
:103B1000DF91CF911F910F910895FA01811101C09A
:103B2000FB010994CF93DF93C82FD62F0E94091869
:103B30008C1740F00E9409188D1720F4DF91CF9167
:103B40000C94901C8C2FDF91CF910C94A01C1F9390
:103B5000CF93DF93EC01FB01128111117EC00E9413
:103B6000B00C8272CC3CFCE5DF0709F49CC008F085
:103B700041C0C63CECE5DE0709F481C0D8F4C33C83
:103B80009CE5D90709F471C030F4C23CDC4509F466
:103B900069C011E062C0C43C9CE5D90709F46AC061
:103BA00041EC59E164EB79E1C53CDC4591F70E94B9
:103BB0008D1D53C0C93CFCE5DF0709F46AC068F4F9
:103BC000C73CECE5DE0709F45FC040ED59E16FED5D
:103BD00079E1C83CDC4559F3DCCFCA3C9CE5D90708
:103BE00009F45CC04CE358E165E278E1CB3CDC458C
:103BF000F1F2CFCFC13DFCE5DF0709F465C098F4D1
:103C0000CE3C9CE5D90709F457C008F451C0CF3C1D
:103C1000FCE5DF0709F455C0C03DDC4509F0B9CF2C
:103C20006EE089E04BC0C43D9CE5D90709F452C061
:103C300058F4C23DFCE5DF0709F449C0C33DDC454B
:103C400009F0A7CF88E135C0C53D9CE5D90709F447
:103C500044C0CD35DD4509F09CCF812FDF91CF9158
:103C60001F9108950E94AB1CF8CF4DE95CE160E91B
:103C70007CE19DCF40E95CE16DE97CE198CF44EBCC
:103C800059E161EC79E193CF4FED59E160ED79E1D4
:103C90008ECF4DEF59E16EEE79E189CF4EEE59E1CD
:103CA0006DEF79E184CF45E258E16CE378E17FCFB5
:103CB00081E00E94A01CD1CF65E082E00E94921DAD
:103CC000CCCF68E086E0FACF64E18FE0F7CF67E120
:103CD00085E1F4CF62E289E1F1CF83E2EACF849A11
:103CE00041B34F7E51B35061EFB7F8949B01220F5F
:103CF000331F260F371F280F391F2817390741F4A4
:103D0000EFBF8FE594E00197F1F700C00000089540
:103D1000DC016D91CD0178E051BB000000C067FF70
:103D200041BB660F000000C000C000C041BB00C026
:103D30007A9591F7E2CF83E290E00E9414328232CA
:103D400089F484E290E00E941432833059F485E2D1
:103D500090E00E94143291E0803209F090E0892FC7
:103D60008170089580E0FCCFCF93C82F6FEF811151
:103D700062E283E290E00E9428326FEFC11163E0BB
:103D800084E290E00E9428326FEFC11160E285E288
:103D900090E0CF910C942832089586E290E00E9442
:103DA0001432682F70E090E080E008950895CF937A
:103DB000C62F0E94D61E6C2F86E290E0CF910C9405
:103DC000283280E00E94B41E60E070E0CB010E94C7
:103DD000D71E0E94F6210E94E02281E00C94B41EBE
:103DE0000E94CC1E0E94CD1E0E94D61E0E949B1EC9
:103DF000811102C00C94E11E0895CF93FB01C28192
:103E0000CC2309F19C0122513F452031310520F599
:103E100082510E94F022C0E08C2FCF91089581E062
:103E20000E94DD0843E062E081E00E948503F3CF59
:103E300081E00E94E80843E062E081E00E9485039F
:103E4000EBCF82E0F6CF8031FFE59F0789F3813128
:103E50009F45B9F3C1E0E0CF8031EFE59E07F9F26D
:103E600081319F45C9F682E0DBCF2FEFFC01208333
:103E70000895CF93DF93EC0188818138A9F028F46D
:103E8000803871F0DF91CF910895823881F08338C6
:103E9000C9F70E94541889830E9457188A83F2CF69
:103EA0000E945A188983EECF0E940918FBCF0E9406
:103EB0003F18F8CFCF93DF93EC0188818138E1F090
:103EC00028F4803869F0DF91CF910895823811F19C
:103ED0008338C9F70E945A18482F6A81898108C01F
:103EE000D9810E945718C82F0E9454184D2F6C2F4B
:103EF000DF91CF910C94001A89810E94B21C8981B4
:103F0000811104C0DF91CF910C94121CDF91CF91ED
:103F10000C94E81C8981DF91CF910C945118EF9299
:103F2000FF920F931F93CF93DF93EC01062FDC01D9
:103F3000ED91CD01E150E33108F0ADC0F0E0E6597C
:103F4000FD4C0C94B031198289E08A83602FCE0138
:103F5000DF91CF911F910F91FF90EF900C94B026BD
:103F60008981823069F0833071F08130D9F40E9408
:103F7000E9250E94B6316A837B838C839D83E6CFDB
:103F80000E94CD1EF6CF7E01B2E0EB0EF11C10E0D8
:103F9000812F0E942911F70181937F011F5F143047
:103FA000B9F7D4CF602FCE010E94351FCFCF8981C2
:103FB0008230C1F76A817B818C819D810E94B631FC
:103FC0000E94D71EC3CF4B816A8189810E94C8217C
:103FD0009827892798279D838C83B8CF2C813D8192
:103FE0003227232732274B816A8189810E94E12170
:103FF000ADCF0E94F621AACF0E945A1FA7CF0E94E0
:10400000391FA4CF0E94F017A1CF0E948922898373
:104010009DCF0E948B229827892798279A8389838E
:1040200095CF6B8170E089819A81AE014C5F5F4FC3
:104030009827892798270E948E2288CF6B8170E06D
:1040400089819A81AE014C5F5F4F98278927982715
:104050000E94B5227BCF0E94E02278CF0E94B5213A
:10406000D6CF6B8170E089819A81AE014C5F5F4F42
:104070009827892798270E942E2268CF6B8170E0AD
:1040800089819A81AE014C5F5F4F982789279827D5
:104090000E9453225BCF8FEF888358CFCF93DF935B
:1040A000EC01FB018281882309F45DC1C330FDE589
:1040B000DF07C0F5CA3F9CE5D90730F49E012250C6
:1040C0003C4524313105B0F50E94AA0D90935E0560
:1040D00080935D05C1318CE5D80709F401C108F072
:1040E0005EC0C930ECE5DE0709F4C8C0C8F5C530CC
:1040F0008CE5D80709F4BAC000F5C330ECE5DE075B
:1041000009F4ACC008F0AEC0C230DC4509F4A0C070
:1041100080915D0590915E050E94B80D0E9468082F
:1041200080E008C0C136EDE5DE0771F2C53AFDE575
:10413000DF0751F2DF91CF91089580915D05806294
:10414000C7309CE5D90709F486C080915D05806180
:10415000C830DC4508F47FC080915D0580647BC079
:10416000CD30FCE5DF0709F4ABC058F4CB309CE55B
:10417000D90709F4A1C008F487C080915D058D7F3F
:104180006AC080915D058F7ECF30FCE5DF0709F4C2
:1041900062C008F499C080915D058F7D5CC0CD3F01
:1041A0009CE5D90709F498C038F5C531FCE5DF076F
:1041B00009F4B6C080F4C3319CE5D90709F49AC06C
:1041C00008F492C00E94680890915D05892F97FBC2
:1041D00087F9805840C0CB3FFCE5DF0709F44AC0AF
:1041E00008F076C080915E058160CA3FDC4509F029
:1041F0008FCF80935E058CCFC130EDE5DE0709F4EB
:10420000A0C0B0F4CF3F8CE5D80709F47EC008F415
:1042100048C080915E05982F909591708E7F892B74
:1042200090FB81F980935E0540E081FF74C03FC040
:10423000C136EDE5DE0709F488C0C53AFDE5DF07C4
:1042400009F48AC0C230DD4509F062CF80E07AC04F
:1042500080915D05816080935D055ACF80915D05F9
:104260008260F9CF80915D058460F5CF80915D0516
:104270008860F1CF80915E058260BBCF0E946808A4
:1042800080915D058068E7CF80915D058C608093AB
:104290005D0540E064E070E08FE593E00E94181354
:1042A00037CF80915E05836080935E0540E064E0D7
:1042B00070E08FE293E0F2CF80915D058E7FCBCFEF
:1042C00080915D058B7FC7CF80915D05877FC3CFD0
:1042D00080915E058E7F8DCF80915E058D7F89CF29
:1042E00080915D058F7BB7CF0E94680880915D0546
:1042F0008F77B1CF80915D05837F80935D0540E02E
:1043000062E070E08FE793E0C9CF80915E058C7F1B
:1043100080935E0540E062E070E08FE493E0BECF02
:1043200080915D0582FB992790F921E0922790FB0F
:1043300082F990FB83F980935D0540E083FFE0CF35
:10434000A9CF81E00E94460EE3CE90915D05892FB2
:104350008F7E94FF80617FCF90915D05892F8E7F46
:1043600090FF816078CF81E0E5CE84E0089528E079
:10437000629FB001112450E0440F551F640F751F58
:1043800020E2829FC0011124860F971F879608950F
:104390000F931F93CF93DF930E94B7218C010E944C
:1043A0001432C82FD0E0DC2FCC27C80101960E9420
:1043B00014329E01282BC901DF91CF911F910F91DB
:1043C00008950F931F93CF93DF93122F032F0E9413
:1043D000B721EC01602F0E942832612FCE01019697
:1043E000DF91CF911F910F910C942832AF92BF9221
:1043F000CF92DF92EF92FF921F93CF93DF938EE2E3
:10440000C82E81E0D82ED0E07601C0E014C0F501BE
:1044100025913491412F6C2F8D2F0E94E12182E054
:10442000A80EB11C1F5F143091F788E0E80EF11C54
:10443000CF5FC43019F0570110E0E9CFDF5F80E2B1
:10444000C80ED11CD43001F7DF91CF911F91FF909E
:10445000EF90DF90CF90BF90AF900895EF92FF92D2
:104460000F931F93CF93DF93EC018A017C01E60E3B
:10447000F71ECE018796CE15DF0539F4DF91CF9177
:104480001F910F91FF90EF900895C038D10540F42F
:104490000E941432F80180830F5F1F4F2196E9CFED
:1044A000F8011082F9CFCF92DF92EF92FF920F9333
:1044B0001F93CF93DF937C016A018C01060F171FB6
:1044C000EC01CE018796C017D10749F4DF91CF9157
:1044D0001F910F91FF90EF90DF90CF900895C0381B
:1044E000D10540F4FE01EE19FF09EC0DFD1D6081C0
:1044F0000E9428322196E5CF462F843038F474305C
:1045000028F4643018F4672F0C94C82190E080E000
:10451000089580E1089589E593E00895EF92FF9270
:104520000F931F93CF93DF93EC018A017C01E60E7A
:10453000F71ECE0189559F4FCE15DF0539F4DF9167
:10454000CF911F910F91FF90EF900895C93523E00F
:10455000D20740F40E941432F80180830F5F1F4F8E
:104560002196E7CFF8011082F9CFCF92DF92EF9238
:10457000FF920F931F93CF93DF937C016A018C010D
:10458000060F171FEC01CE0189559F4FC017D107A9
:1045900049F4DF91CF911F910F91FF90EF90DF9041
:1045A000CF900895C93523E0D20740F4FE01EE19FB
:1045B000FF09EC0DFD1D60810E9428322196E3CF9A
:1045C000CF93DF93C7EAD0E060E0CE010E942832AB
:1045D0002196C11584E0D807B9F7DF91CF910895EE
:1045E000DF92EF92FF920F931F93CF93DF9300D050
:1045F00000D0CDB7DEB7F82E8FE08F1540F08FEFEB
:1046000093E00E94143207EA10E08823C1F00F9073
:104610000F900F900F90DF91CF911F910F91FF900E
:10462000EF90DF900895011584E0180781F3C80129
:104630000E941432811101C0FA940F5F1F4FF110D4
:10464000F2CF19821A821B821C82DD24D394780156
:104650008FEFE81AF80AC8010E94143289831A827F
:104660008823A9F29FEF980F933078F48A83D98238
:104670000E5F1F4FC7010E9414328B83882339F2CB
:10468000CE0101960E940105E2CF8701F9CFCF93B9
:10469000DF93EB0186319C4511F50E94B00C9A81A5
:1046A000992399F08A7A91E009F490E090932C058F
:1046B000811109C089E20E948B0C0E94F00C80E0FD
:1046C000DF91CF91089585E3F6CF80912C0581117C
:1046D00004C089E20E94920CF0CF85E3FBCF81E019
:1046E000EFCF0F931F93CF93DF93C42FD22FFC01F3
:1046F00082818823C9F040932F050E94DD25909385
:104700002E0580932D0580E28C0F883008F050C074
:10471000C77081E001C0880FCA95EAF7DF91CF9199
:104720001F910F910C94110610912F05141335C091
:1047300080912D0590912E050E94F525883C9105CC
:1047400060F5C0E2CD0F1D17B9F080E2810F88300F
:1047500040F4177081E001C0880F1A95EAF70E94B3
:104760001806C83048F481E09D2F977001C0880F6B
:104770009A95EAF70E941106802F0E940906C83018
:10478000B8F4D77081E001C0880FDA95EAF7DF91BD
:10479000CF911F910F910C94180680E28C0F8830F6
:1047A00038F4C77081E001C0880FCA95EAF7EFCFEF
:1047B000DF91CF911F910F9108950F939C01CB0131
:1047C000233F4CE5340759F1A8F4283DFCE53F07A9
:1047D00001F1293D4CE53407D1F1273D3C4591F4E9
:1047E00006E221EE41EE67ED7CE50E94712380E058
:1047F0000F910895253FFCE53F07E9F0B0F0263F13
:104800003C45F9F0FC018281882339F110922F0593
:10481000EFCF07E225EE45EE68ED7CE5E6CF06E258
:1048200021EE40EE63EF7CE5E0CF07E225EE44EEBB
:1048300064EF7CE5DACF06E221EE42EE65EF7CE53F
:10484000D4CF07E225EE46EE66EF7CE5CECF08E258
:1048500021E045EE69ED7CE5C8CF81E0C9CF9093BA
:104860005F0480935E04089590933505809334052A
:104870000895E0913405F0913505309721F00190CD
:10488000F081E02D099480E00895E0913405F091E5
:104890003505309799F020919B03222359F0209100
:1048A0005D0527FF07C0DC012C9111962C93119711
:1048B00026E02C930280F381E02D09940895209145
:1048C0003205309133052817390771F0909333057D
:1048D00080933205E0913405F0913505309721F051
:1048E0000680F781E02D09940895209130053091DC
:1048F00031052817390771F0909331058093300501
:10490000E0913405F0913505309721F00084F18570
:10491000E02D09940895FC01329680919B03882331
:1049200021F080915D059EE187FF96E080E0915047
:1049300008F4089521912223D1F38F5FF8CF6623E5
:1049400001F120919B032223F1F020915D0527FFC7
:104950001AC0462F4695469546954E3190F467709D
:1049600021E030E002C0220F331F6A95E2F7840F86
:10497000911DFC01828190E02823392381E0232BC3
:1049800069F480E00895FC0132960896219126177B
:1049900021F0E817F907D1F7F4CF81E008959C01E1
:1049A000FC0132969FEF80E04191461751F09F3F06
:1049B00019F4411101C0982F8F5F8630A9F79F3FEE
:1049C00009F40895290F311D97FD3A95F901628385
:1049D0000895FC01329608962191261303C0DF0149
:1049E00011971C92E817F907B9F70895E62FE69595
:1049F000E695E695EE3168F4E80FF92FF11D677042
:104A000021E030E001C0220F6A95EAF78281822B13
:104A100082830895E62FE695E695E695EE3170F4EB
:104A2000E80FF92FF11D677021E030E001C0220F7F
:104A30006A95EAF7209582812823228308952091A0
:104A40009B03222329F020915D0527FD0C94F62479
:104A50000C94CF2420919B03222329F020915D0503
:104A600027FD0C940A250C94E924FC0132968091D0
:104A70009B03882351F080915D0587FF06C08EE17E
:104A8000DF011D928A95E9F7089586E0F9CF089530
:104A90000C944725811105C081E0809336050C9464
:104AA000482582E0FACF83E0809336050C944825B0
:104AB0000C944A2581E0809336050C9448250C948B
:104AC0005A25089508950C946225089508950C942C
:104AD0006125CF930E9465250E94E1110E94662501
:104AE000C0E08C2F0E942911811105C0CF5FC43016
:104AF000C1F7CF91089581E0FCCF08951F921FB6B2
:104B00001F9211248F939F93AF93BF93809137058A
:104B1000811113C08091FE059091FF05A0910006C0
:104B2000B09101064196A11DB11D8093FE059093A1
:104B3000FF05A0930006B0930106BF91AF919F912E
:104B40008F911F901FBE1F9018958091060684308C
:104B500031F10E9425041092370588E190E020E4AD
:104B60000FB6F894A895809360000FBE2093600064
:104B700083B7817F846083BF83B7816083BF78946C
:104B8000889583B78E7F83BF0FB6F894A8958091E0
:104B90006000886180936000109260000FBE0895ED
:104BA0000E9468080C942D0482E084BD93E095BDBA
:104BB0009AEF97BD80936E0008952FB7F894809177
:104BC000FE059091FF05A0910006B09101062FBF50
:104BD00008952FB7F8946091FE057091FF058091BC
:104BE0000006909101062FBF08959C014FB7F894DD
:104BF0008091FE059091FF05A0910006B0910106FD
:104C00004FBF821B930B089578941F921FB61F927B
:104C100011248F939F93AF93BF938091FE05909142
:104C2000FF05A0910006B09101060196A11DB11DDE
:104C30008093FE059093FF05A0930006B0930106B4
:104C4000BF91AF919F918F911F901FBE1F9018959C
:104C500087E797E7909301088093000888E19AE03E
:104C60000FB6F894A895809360000FBE90936000F3
:104C7000FFCF80915B0508950895CF93DF93EC01FA
:104C800080919B038823B1F180915D0587FF32C03D
:104C900060E284E08093E9008FEF9091E80081501A
:104CA00095FD06C095ED9A95F1F700008111F5CFBD
:104CB0008091E80085FF1BC080919B0370E050E06D
:104CC00040E0811104C050E040E068E070E0CE01B7
:104CD0000E94C1288091E8008E778093E80080E2EE
:104CE000FE01ABE3B5E001900D928A95E1F7DF910B
:104CF000CF91089568E081E0CDCF8093380570931F
:104D00003A0560933905809106068430F9F4809362
:104D1000E9008FEF9091E800815095FD06C095ED78
:104D20009A95F1F700008111F5CF8091E80085FF99
:104D30000DC050E040E063E070E088E395E00E9441
:104D4000C1288091E8008E778093E8000895BC0127
:104D500084E00C947D26BC0183E00C947D260895AC
:104D6000CF93FC01603221F580910606843001F575
:104D7000C091E900CF702091EC00922F917020FD3E
:104D800090E8C92B82E08093E9008091E80080FFE1
:104D90000CC050E040E060E270E0CF010E94C1280A
:104DA0008091E8008E778093E800CF70C093E9008F
:104DB000CF91089580910506811109C00E94A02A13
:104DC0000E94FD2A8091E20084608093E2000895B1
:104DD0001092050608950C945A256091020681E010
:104DE000611101C080E00C9453259091060681E08A
:104DF000943009F080E0609102060C94582542E05E
:104E000061EC81E00E941C2A42E261EC84E00E9495
:104E10001C2A42E261EC82E00E941C2A42E260EC21
:104E200083E00E941C2A9091060681E0943009F0EC
:104E300080E0609102060C944A2580910806833038
:104E400009F462C030F48130D9F1823009F49EC097
:104E500008958A3009F48AC08B3009F470C0893013
:104E600009F051C080910706813209F04CC0809151
:104E70000B0690910C06009719F0029709F043C0B9
:104E80008091E800877F8093E8008091E80082FFAE
:104E900036C09091F3008091F200029731F4809136
:104EA000F100813011F0863021F48091F10080937F
:104EB0005B058091E8008B778093E8000C94502A82
:104EC00080910706813AF9F48091E800877F80930A
:104ED000E80080910B0690910C06892B61F460E24A
:104EE0008BE395E070E00E945F298091E8008B776A
:104EF0008093E800089560E090E080E0F3CF809137
:104F000006068111C2CF089580910706813AD9F72C
:104F100080910B0690910C06892BA9F78091E800EF
:104F2000877F8093E8008091E80080FFFCCF80912C
:104F30009B038093F1008091E8008E77BDCF809134
:104F40000706813201F780910B0690910C06892BA0
:104F5000D1F68091E800877F8093E8000E94502A74
:104F60008091090680939B030C9468088091070642
:104F7000813249F68091E800877F8093E8000E94A3
:104F8000502A80910A0680935C0508958091070657
:104F9000813A09F0B8CF8091E800877F8093E800DC
:104FA0008091E80080FFFCCF80915C05C2CF84B780
:104FB000877F84BF0FB6F894A895809160008861C0
:104FC00080936000109260000FBE80E890E00FB602
:104FD000F89480936100909361000FBE0C945F255C
:104FE0000E94A02A0E94FD2AE2EEF0E08081846007
:104FF000808378940C94862D8FE893E00C9434246D
:10500000809106068530A9F480910606853011F05E
:105010000C94D0250E94A525809104068823A1F335
:105020000E946925882381F30E94AB280E946808AA
:10503000EBCF0895CF93DF93CDB7DEB7A0970FB630
:10504000F894DEBF0FBECDBF80910606843009F50F
:1050500083E08093E9008091E80082FF1AC080918C
:10506000E80090E085FF09C050E040E060E270E0B9
:10507000CE0101960E94102991E08091E8008B7783
:105080008093E800992329F060E2CE0101960E9406
:105090008F1FA0960FB6F894DEBF0FBECDBFDF9175
:1050A000CF9108950C945428292F332723303105AC
:1050B00021F168F42130310509F443C02230310573
:1050C00009F444C090E080E030E020E026C02132C6
:1050D000310551F122323105A9F76330710590F79E
:1050E000FB01EE0FFF1FEF5AFB4F20813181625B06
:1050F0007B4FFB01808190E010C0992781309105A2
:1051000081F0009729F00297E9F6E5E7F4E002C0A4
:10511000E5EAF4E0849190E09F01FA013183208375
:105120000895EDE8F4E0F6CF6330710558F6660FA8
:10513000771FFB01E95AFB4F2081318189E090E024
:10514000ECCF82E190E024E035E0E7CF8BE590E022
:1051500029EA34E0E2CF80E189BD82E189BD09B46A
:1051600000FEFDCF8091D8008F7D8093D800809184
:10517000E00082608093E0008091E00081FDFCCF40
:105180000895AF92BF92CF92DF92FF920F931F9339
:10519000CF93DF936C01EB018A010E946F2AF82EF6
:1051A000811123C00115110539F0F8018081918129
:1051B000C81BD90BC80ED91EB12CA12C2097A9F061
:1051C0008091E80085FD22C08091E8008E77809371
:1051D000E80001151105A1F0F80180819181A80E68
:1051E000B91EB182A08285E0F82E8F2DDF91CF917C
:1051F0001F910F91FF90DF90CF90BF90AF900895D7
:105200000E946F2A8823D1F2F82EEFCFF601819108
:105210006F018093F1002197FFEFAF1ABF0ACECF45
:10522000AF92BF92CF92DF92FF920F931F93CF93D3
:10523000DF936C01EB018A010E946F2AF82E811125
:1052400023C00115110539F0F80180819181C81B37
:10525000D90BC80ED91EB12CA12C2097A9F0809192
:10526000E80085FD22C08091E8008B778093E800FC
:1052700001151105A1F0F80180819181A80EB91ED8
:10528000B182A08285E0F82E8F2DDF91CF911F9102
:105290000F91FF90DF90CF90BF90AF9008950E9444
:1052A0006F2A8823D1F2F82EEFCF8091F100F6011A
:1052B00081936F012197FFEFAF1ABF0ACECFFC0198
:1052C00080910D0690910E0686179707A0F0611544
:1052D000710529F49091E8009E779093E80090E0A2
:1052E0006115710551F4911108C08091E80082FFA9
:1052F00034C080E00895BC01F2CF80910606882377
:10530000C1F18530C1F18091E80083FD30C080910A
:10531000E80082FDEACF8091E80080FFE1CF809134
:10532000F3002091F200382F6115710519F0283033
:10533000310558F091E02830310509F090E02091D6
:10534000E8002E772093E800CBCF81918093F10085
:10535000615071092F5F3F4FE7CF80910606882388
:1053600041F0853041F08091E80083FFBECF81E0BD
:10537000089582E0089583E00895FC0180910D0670
:1053800090910E0686179707A0F06115710529F414
:105390008091E8008E778093E80090E061157105B8
:1053A00051F4911108C08091E80082FF35C080E07F
:1053B0000895BC01F2CF809106068823C9F185309B
:1053C000C9F18091E80083FD31C08091E80082FD41
:1053D000EACF8091E80080FFE1CF8091F300209137
:1053E000F200382F6115710519F02830310558F099
:1053F00091E02830310509F090E08091E8008E7747
:105400008093E800CBCF84918093F1003196615076
:1054100071092F5F3F4FE6CF80910606882341F048
:10542000853041F08091E80083FFBDCF81E0089591
:1054300082E0089583E00895982F973028F08F70C8
:105440008093E90081E008959093E900242F762F5E
:1054500050E0981731F07091EC002091ED005091E0
:10546000F00021FD02C09F5FE8CF3091EB003E7F4E
:105470003093EB003091ED003D7F3093ED003091A3
:10548000EB0031603093EB007093EC002093ED0063
:105490005093F0002091EE0027FDE5CF80E00895C5
:1054A0008091070687FF13C08091E80082FF06C045
:1054B0008091E8008B778093E80004C08091060615
:1054C0008111F2CF0895809106068823D9F3809147
:1054D000E80080FFF8CF8091E8008E77ECCF209134
:1054E000E4003091E50095E6A9012091EC00822FBF
:1054F000817020FF06C08091E80080FF06C080E038
:1055000008952091E80022FD1AC0809106068823A4
:1055100089F0853089F08091EB0085FD0FC02091E6
:10552000E4003091E50042175307F9F29150E1F69B
:1055300084E0089582E0089583E0089581E008956D
:105540000E940E2B0E94162BE0EEF0E0808181601D
:105550008083E8EDF0E080818F77808319BCA7ED30
:10556000B0E08C918E7F8C9380818F7E80831092AF
:10557000050608950F931F93CF93DF930E940E2B80
:105580000E94162BC8EDD0E088818F7788838881B0
:105590008068888388818F7D888319BC1092060675
:1055A00010920206109204061092030600EE10E01C
:1055B000F80180818B7F808388818160888342E0CD
:1055C00060E080E00E941C2AE1EEF0E080818E7FA6
:1055D0008083E2EEF0E0808181608083808188605A
:1055E0008083F80180818E7F8083888180618883B9
:1055F000DF91CF911F910F910895E8EDF0E0808148
:105600008F7E8083E7EDF0E080818160808384E09D
:1056100082BF81E0809305060C94BA2AE8EDF0E0A1
:1056200080818E7F80831092E20008951092DA00CC
:105630001092E10008951F920F920FB60F9211245D
:105640002F933F934F935F936F937F938F939F938A
:10565000AF93BF93EF93FF938091E10082FF0BC064
:105660008091E20082FF07C08091E1008B7F8093F0
:10567000E1000E94852D8091DA0080FF19C08091A1
:10568000D80080FF15C08091DA008E7F8093DA0009
:105690008091D90080FF96C080E189BD82E189BDFB
:1056A00009B400FEFDCF81E0809306060E94DA2651
:1056B0008091E10080FF19C08091E20080FF15C059
:1056C0008091E2008E7F8093E2008091E200806111
:1056D0008093E2008091D80080628093D80019BC4A
:1056E00085E0809306060E94ED268091E10084FF0C
:1056F0002BC08091E20084FF27C080E189BD82E158
:1057000089BD89B5982F917080FFFBCF8091D8001B
:105710008F7D8093D8008091E1008F7E8093E1009F
:105720008091E2008F7E8093E2008091E2008160B0
:105730008093E20080910206882309F449C084E046
:10574000809306060E94F5268091E10083FF29C020
:105750008091E20083FF25C08091E100877F8093E4
:10576000E10082E080930606109202068091E1003B
:105770008E7F8093E1008091E2008E7F8093E20033
:105780008091E20080618093E20042E060E080E08E
:105790000E941C2A8091F00088608093F0000E9493
:1057A000EB26FF91EF91BF91AF919F918F917F91E8
:1057B0006F915F914F913F912F910F900FBE0F907E
:1057C0001F90189519BC109206060E94E82670CF0B
:1057D0008091E30087FD93E090930606B3CF1F927C
:1057E0000F920FB60F9211242F933F934F935F9315
:1057F0006F937F938F939F93AF93BF93CF93DF93D9
:10580000EF93FF93D091E900DF708091EC00C82FF7
:10581000C17080FDC0E81092E9008091F000877FA0
:105820008093F00078940E94332C1092E9008091CC
:10583000F00088608093F000CD2BCF70C093E9001A
:10584000FF91EF91DF91CF91BF91AF919F918F9198
:105850007F916F915F914F913F912F910F900FBE6C
:105860000F901F9018951F93CF93DF93CDB7DEB79E
:10587000AA970FB6F894DEBF0FBECDBF87E096E0C3
:105880002091F100FC012193CF01F6E08F309F07BA
:10589000B9F70E941D278091E80083FF1EC1809107
:1058A0000706909108069A3008F017C1E92FF0E03A
:1058B000E358FD4C0C94B031803899F0823809F0EF
:1058C0000CC180910B068F70873008F006C1809361
:1058D000E9008091EB0085FB882780F91092E900B0
:1058E00006C0809103069091040691118260909108
:1058F000E800977F9093E8008093F1001092F10008
:105900008091E8008E77E5C0882309F4D3C0823007
:1059100009F0E3C0809109068111D6C080910B0681
:105920008F702FEF280F263008F0D7C08093E90042
:105930002091EB0020FFC8C0933031F48091EB0040
:1059400080628093EB00C0C09091EB0090619093D7
:10595000EB0021E030E001C0220F8A95EAF72093A6
:10596000EA001092EA008091EB008860EACF811192
:10597000B4C0109109061F778091E3008078812BD5
:105980008093E3008091E800877F8093E8000E9485
:10599000502A8091E80080FFFCCF8091E30080686E
:1059A0008093E30082E0111183E08093060695C0A6
:1059B0008058823008F091C08091090690910A06C3
:1059C0008C3D23E09207A1F583E08A838AE28983F4
:1059D0004FB7F894DE01139620E03EE051E2E32F4A
:1059E000F0E050935700E49120FF03C0E295EF7080
:1059F0003F5FEF708E2F90E0EA30C0F0C7968D9336
:105A00009D932F5F243159F74FBF8091E800877F26
:105A10008093E8006AE270E0CE0101960E945F295F
:105A20008091E8008B778093E80057C0C096E7CF5D
:105A300060910B0670910C06AE014F5F5F4F0E94A4
:105A40005228BC01892B09F448C09091E800977F47
:105A50009093E80089819A810E94BD29E1CF803826
:105A6000E1F58091E800877F8093E800809102064D
:105A70008093F10045CF811130C09091090692309A
:105A800060F58091E800877F8093E800909302069C
:105A90000E94502A80910206882311F084E005C0FC
:105AA0008091E30087FDFACF81E0809306060E9493
:105AB000FF2613C080910906813079F481E093308C
:105AC00009F080E0809304061092E9008091E800DC
:105AD000877F8093E8000E94502A8091E80083FF2E
